:020000040000FA
:0400000080312C28F7
:100008007E1480310B1F09280A282A282100111E76
:100018000E280F281A282000111E132814281A2821
:100028005C088A005B080A0080312A282100911E9A
:100038001E281F282A282000911E232824282A2821
:100048005A088A0059080A0080312A287E100900B7
:1000580080312E28FB0120308400003085001F30BD
:100068008231E82280317E1020008231112A453009
:100078002000C7004708CB00E828253050060319A0
:10008800462847284C2850088231EE228031E8283B
:10009800CC014408C8004308C700C30A0319C40AAE
:1000A80047088400480885000008D000003A031972
:1000B800FD28643A031964280D3A03196428E828CE
:1000C8004B0886008701403FCE00413FCF000230F9
:1000D800C7004708CB07CF1F722873287C28033036
:1000E800C7004708CC04CE09CF09CE0A0319CF0AA6
:1000F800D001D00A5008C700C801C735C80DBC30A8
:10010800470784008230483D8500003FC900013F11
:10011800CA004A084F02031D932849084E020318D3
:10012800962897289828A2280130C7004708D007A2
:1001380005305006031DA128A2287E284C08033943
:100148000319A728A828AC282D308231EE22803147
:1001580020005008C7004708CD00DE280A30BF003D
:100168000030C0004D08C700C801C735C80DBC30F5
:10017800470784008230483D8500003FF100013F79
:10018800F2004F08F4004E08F30081313D21803120
:1001980072082000C2007108C1008131B22180318B
:1001A80020003F08303EC9004908D000500882317D
:1001B800EE228031FF302000C7004708CD074D0AE6
:1001C800031DE728E828B22820004408C80043088F
:1001D800C700C30A0319C40A4708840048088500F1
:1001E8000008C9004908D0005008031DFC28FD2854
:1001F80041280800210091127930F1000130F20005
:100208008231FA228031210011125C30F100023073
:10021800F2008231F4228031083023009F009030B0
:100228009D0024309E00CF309B009C012230F100BD
:100238000330F2008331062380311A30F100033095
:10024800F2008331002380311E30F1000330F200C8
:1002580083310C2380312000BA01BE01BD01083072
:10026800F3007308DD00FB01BC01BB0121009116FE
:100278000800F601F7017108720403194429452999
:100288007429F801F80A51290130F135F20D890B6A
:1002980049290130F5007508F807F21F5429552936
:1002A80048290130F635F70D890B56297208740272
:1002B800031D602971087302031C632964296929D5
:1002C8007108F3027208F43B76140130F236F10C2F
:1002D800890B6A290130F802031D732974295529ED
:1002E8007708F2007608F10008007B08203E8600B7
:1002F8008701810123001D1D822983298E297B08FE
:10030800203E860087018114200058088A0057087B
:100318000A00813123009D1C922993299E297B087C
:10032800203E860087010115200056088A005508DE
:100338000A0081317B08203E8600870101080319E5
:10034800A629A729AE29200054088A0053080A00C4
:100358008131B12982317E228131080020003F0895
:1003680040040319B829B929E229FA01FA0AC5296A
:100378000130BF35C00D890BBD290130F90079085E
:10038800FA07C01FC829C929BC2940084202031D11
:10039800CF293F084102031CD229D329D7293F0876
:1003A800C1024008C23B0130C036BF0C890BD829B6
:1003B8000130FA02031DE129E229C9294208C000D7
:1003C8004108BF000800F20020005D080319ED296C
:1003D800EE29E8292100111AF229F329F7297208D0
:1003E80023009A000E2A11127208F10020003E081C
:1003F800303E86008701710881000130F1007108E4
:10040800BE0708303E02031C0A2A0B2A0C2ABE012A
:100418000130DD0221001116080023009E169D17E9
:100428008231982282318B170B17AE302000C3001F
:100438008230C40080313B2082312000D101D201BA
:100448001230C3008330C4005208C6005108C500EA
:1004580080313B20823101302000D1070030D23D6D
:10046800242A80312C2822008C018E01073021009B
:100478008C0020308E0023008E0107308C00240071
:100488008C018E012100951725008C018E013730D3
:1004980026008C003F308E003F3027008C003F3014
:1004A8008E0015303C00A40014303D00A400080064
:1004B800083020005D020318622A632A7B2A3D085F
:1004C800303E86008701010823009A000130F000C1
:1004D80070082000BD0708303D02031C742A752AE5
:1004E800762ABD010130F0007008DD077D2A210061
:1004F8001112080023001908F0007B08283E860026
:100508008701700881000130F0007008FB0708308F
:100518007B02031C902A912A922AFB010130F000E9
:1005280070082000BB0708008231372282318231EF
:10053800E02282318331162382318231C622823110
:100548008231CF2282318231D82282318031FE201D
:1005580082310800483465346C346C346F3420348C
:1005680057346F3472346C34643421340A340034B0
:10057800013400340A34003464340034E834033479
:10058800103427341C30250093003E30910092012E
:10059800FC309E050800123021009E009F019B013F
:1005A8009C0101309D0008007C3020009B009A01CE
:1005B80091107C309C0008007030210099009A014D
:1005C8009801220096010800640080010131890B1E
:1005D800E92A0034F30073088131E72182310800E9
:1005E80072082000DC007108DB0008007208200097
:1005F800DA007108D900080072082000D6007108D6
:10060800D500080072082000D8007108D70008003B
:1006180072082000D4007108D3000800253464341F
:100628000A340034163021009700080023001D12F8
:0E0638001D16080082317E2283310800080062
:020000040001F9
:04000E00E439FF1EB4
:00000001FF
