:020000040000FA
:0400000080312C28F7
:100008007E1480310B1F09280A282A282100111E76
:100018000E280F281A282000111E132814281A2821
:1000280046088A0045080A0080312A282100911EC6
:100038001E281F282A282000911E232824282A2821
:1000480044088A0043080A0080312A287E100900E3
:1000580080312E28F901FA01FB012030840000309C
:1000680085001D308131B82180317E10200081311A
:100078007629210091127C30F1000030F2008131A4
:10008800CA218031210011120430F1000130F20040
:100098008131C4218031083023009F0090309D00B9
:1000A80024309E00CF309B009C01EE30F1000130DF
:1000B800F2008131D6218031E630F1000130F200C2
:1000C8008131D0218031EA30F1000130F2008131F4
:1000D800DC2180312000BA01FB01BC010830F300AB
:1000E8007308C700FA01F901BB0121009116080045
:1000F8007A08203E86008701810123001D1D85287E
:10010800862891287A08203E8600870181142000DD
:1001180042088A0041080A00803123009D1C952866
:100128009628A1287A08203E86008701011520001C
:1001380040088A003F080A0080317A08203E86007D
:10014800870101080319A928AA28B12820003E0818
:100158008A003D080A008031B42881314621803167
:100168000800F200200047080319BB28BC28B6285D
:100178002100111AC028C128C528720823009A0036
:10018800DC2811127208F1007B08303E86008701D6
:10019800710881000130F1007108FB0708307B020B
:1001A800031CD728D828D928FB0101302000C70212
:1001B80021001116080022008C018E010730210051
:1001C8008C0020308E0023008E0107308C00240024
:1001D8008C018E012100951725008C018E01373086
:1001E80026008C003F308E003F3027008C003F30C7
:1001F8008E0015303C00A40014303D00A400080017
:1002080008302000470203180A290B2923293C0833
:10021800303E86008701010823009A000130F00073
:1002280070082000BC0708303C02031C1C291D294B
:100238001E29BC010130F0007008C70725292100DC
:10024800111208007630F60076082000C800302920
:1002580049088131BE2181317508F7007408F6001C
:10026800F40A0319F50A760884007708850000085F
:10027800F80078082000C9004908031D44294529C9
:100288002C29080023001908F0007A08283E860067
:100298008701700881000130F0007008FA07083003
:1002A8007A02031C582959295A29FA010130F00009
:1002B80070082000BB0708008031DF2081318131C0
:1002C800B02181318131E221813181319621813121
:1002D80081319F2181318131A821813180313D20B7
:1002E8008131080023009E169D17813160218131DC
:1002F8008B170B178830F4008130F50081312621E7
:100308008131852980312C28483465346C346C342B
:100318006F34203457346F3472346C34643421347D
:100328000A3400341C30250093003E3091009201BD
:10033800FC309E050800123021009E009F019B01A1
:100348009C0101309D0008007C3020009B009A0130
:1003580091107C309C0008007030210099009A01AF
:100368009801220096010800640080010131890B80
:10037800B9290034F30073088031B52081310800B1
:1003880072082000C6007108C50008007208200025
:10039800C4007108C300080072082000C00071087A
:1003A800BF00080072082000C2007108C1000800E0
:1003B80072082000BE007108BD0008001630210038
:1003C8009700080023001D121D16080081314621E0
:0603D8008131080008005D
:020000040001F9
:04000E00E439FF1EB4
:00000001FF
