:020000040000FA
:0400000080313A28E9
:100008007E1480310B1F09280A2838282100111E68
:100018000E280F281A282000111E132814281A2821
:100028005E088A005D080A00803138282100911E88
:100038001E281F282A282000911E232824282A2821
:100048005C088A005B080A00803138282100911C6E
:100058002E282F2838282000911C332834283828A7
:1000680083313523803138287E10090080313C28BF
:100078002030840000308500243083310B23803108
:100088007E1020008231DC2A46302000C800480853
:10009800CC00F42825305106031953285428592830
:1000A800510883313B238031F428CD014508C9002C
:1000B8004408C800C40A0319C50A48088400490846
:1000C80085000008D100003A03190929643A031988
:1000D80071280D3A03197128F4284C088600870105
:1000E800403FCF00413FD0000230C8004808CC074D
:1000F800D01F7F28802889280330C8004808CD04ED
:10010800CF09D009CF0A0319D00AD101D10A510861
:10011800C800C901C835C90DE730480784008230D6
:10012800493D8500003FCA00013FCB004B08500203
:10013800031DA0284A084F020318A328A428A528AD
:10014800AF280130C8004808D10705305106031D03
:10015800AE28AF288B284D0803390319B428B528D1
:10016800B9282D3083313B23803120005108C80045
:100178004808CE00EA280A30F8000030F9004E0896
:10018800C800C901C835C90DE73048078400823066
:10019800493D8500003FF000013FF1005008F300A1
:1001A8004F08F20081314E2180317108FB00700840
:1001B800FA008131C42180317808303E2000CA001D
:1001C8004A08D100510883313B238031FF30200099
:1001D800C8004808CE074E0A031DF328F428BF2894
:1001E80020004508C9004408C800C40A0319C50A04
:1001F80048088400490885000008CA004A08D10058
:100208005108031D082909294E28080021009112C8
:100218008A302000D2000130D30083311D23813180
:100228002100111249302000D2000230D30083315E
:1002380017238131083023009F0090309D0024301F
:100248009E0067309B009C0152302000D200033092
:10025800D3008331292381314A302000D200033072
:10026800D3008331232381314E302000D200033064
:10027800D30083312F2381312000BE01C301C20185
:100288000830D4005408E100C101C001BF012100B9
:1002980091160800F501F601700871040319552933
:1002A80056298529F701F70A62290130F035F10D41
:1002B800890B5A290130F4007408F707F11F6529E2
:1002C800662959290130F535F60D890B672971081A
:1002D8007302031D712970087202031C74297529A1
:1002E8007A297008F2027108F33B75140130F1366F
:1002F800F00C890B7B290130F702031D842985291D
:1003080066297608F1007508F00008002000410809
:10031800203E86008701810123001D1D942995290F
:10032800A02920004108203E8600870181145A0830
:100338008A0059080A00813123009D1CA429A52997
:10034800B02920004108203E860087010115580881
:100358008A0057080A00813120004108203E8600A3
:10036800870101080319B929BA29C02956088A0042
:1003780055080A008131C32982318C228131080055
:10038800780879040319C929CA29F329FD01FD0A46
:10039800D6290130F835F90D890BCE290130FC003A
:1003A8007C08FD07F91FD929DA29CD2979087B02AC
:1003B800031DE02978087A02031CE329E429E829C7
:1003C8007808FA027908FB3B0130F936F80C890BFA
:1003D800E9290130FD02031DF229F329DA297B08F6
:1003E800F9007A08F8000800F100200061080319F4
:1003F800FE29FF29F9292100111A032A042A082AAB
:10040800710823009A001F2A11127108F0002000B9
:100418004308303E86008701700881000130F000F3
:100428007008C30708304302031C1B2A1C2A1D2A14
:10043800C3010130E10221001116080022008C01DD
:100448008E01063021008C0020308E0023008E01A2
:1004580006308C0024008C018E01210095172500A0
:100468008C018E01373026008C003F308E003F30E3
:1004780027008C003F308E0015303C00A4000C3063
:100488003D00A1001430A4000800083020006102DB
:1004980003184F2A502A682A4208303E86008701EE
:1004A800010823009A000130F00070082000C207FC
:1004B80008304202031C612A622A632AC201013001
:1004C800F0007008E1076A2A2100111208000130C3
:1004D8002000BC070030BD3D00303D0264300319E8
:1004E8003C02031C782A792A8B2A4130C4008330C5
:1004F800C5003B08C7003A08C60080314820823151
:1005080001302000BA070030BB3DBC01BD01080026
:1005180023001908F00020004108283E86008701C2
:10052800700881000130F0007008C10708304102EE
:10053800031C9F2AA02AA12AC1010130F0007008DB
:10054800BF0708008231222282318331032382319E
:100558008331462382318231F12282318231FA227B
:1005680082318231BC22823181310A2182310800F4
:10057800263020009B009A019110210091146B30C5
:100588002000D2000230D3008331112382311F3082
:1005980020009C00080020005F0860040319D52A89
:1005A800D62ADB2A60088A005F080A008231080020
:1005B80023009E169D178231A62282318B170B17B6
:1005C800E42A80313A28013400340A34003464348F
:1005D8000034E8340334103427341C3025009300E9
:1005E8003E3091009201FC309E0508004230210007
:1005F8009E009F019B019C0101309D0008006A300C
:10060800210099009A0198012200960108006400CF
:1006180080010131890B0C2B003420005308E000C5
:100628005208DF00080020005308DE005208DD00F1
:10063800080020005308DC005208DB0008002000F6
:100648005308D8005208D700080020005308DA00E1
:100658005208D900080020005308D6005208D500D7
:100668000800200091108231CF2283310800F20067
:1006780072088131F82183310800253464340D343F
:100688000A340034163021009700080023001D1298
:0E0698001D16080082318C22833108000800F4
:020000040001F9
:04000E00E439FF1EB4
:00000001FF
