:020000040000FA
:08000000803102288731FB2F3B
:100F360016302100970008008731C7278731A22F76
:100F4600803102287030210099009A019801220010
:100F5600960108007C3020009B009A0191107C309D
:100F66009C000800123021009E009F019B019C01FD
:100F760001309D0008001C30250093003E30910092
:100F86009201FC309E0508008731DA2787318731C8
:100F9600A527873187319B2787318731BE27873140
:100FA6008731AD2787318731B52787310800220081
:100FB6008C018E01033021008C008E0123008E01EE
:100FC60003308C0024008C018E012100951725002A
:100FD6008C018E01373026008C003F308E003F306A
:100FE60027008C003F308E000C303D00A500080025
:0A0FF600F001F101200087319F2F68
:020000040001F9
:04000E00E439FF1EB4
:00000001FF
