:020000040000FA
:0400000080313A28E9
:100008007E1480310B1F09280A2838282100111E68
:100018000E280F281A282000111E132814281A2821
:100028005E088A005D080A00803138282100911E88
:100038001E281F282A282000911E232824282A2821
:100048005C088A005B080A00803138282100911C6E
:100058002E282F2838282000911C332834283828A7
:1000680083316B23803138287E10090080313C2889
:1000780020308400003085002430833141238031D2
:100088007E10200083310B2B46302000C800480822
:10009800CC00F42825305106031953285428592830
:1000A8005108833171238031F428CD014508C900F6
:1000B8004408C800C40A0319C50A48088400490846
:1000C80085000008D100003A03190929643A031988
:1000D80071280D3A03197128F4284C088600870105
:1000E800403FCF00413FD0000230C8004808CC074D
:1000F800D01F7F28802889280330C8004808CD04ED
:10010800CF09D009CF0A0319D00AD101D10A510861
:10011800C800C901C835C90D1630480784008330A6
:10012800493D8500003FCA00013FCB004B08500203
:10013800031DA0284A084F020318A328A428A528AD
:10014800AF280130C8004808D10705305106031D03
:10015800AE28AF288B284D0803390319B428B528D1
:10016800B9282D3083317123803120005108C8000F
:100178004808CE00EA280A30F8000030F9004E0896
:10018800C800C901C835C90D163048078400833036
:10019800493D8500003FF000013FF1005008F300A1
:1001A8004F08F20081314E2180317108FB00700840
:1001B800FA008131C42180317808303E2000CA001D
:1001C8004A08D1005108833171238031FF30200063
:1001D800C8004808CE074E0A031DF328F428BF2894
:1001E80020004508C9004408C800C40A0319C50A04
:1001F80048088400490885000008CA004A08D10058
:100208005108031D082909294E28080021009112C8
:100218008A302000D2000130D3008331532381314A
:100228002100111279302000D2000230D30083312E
:100238004D238131083023009F0090309D002430E9
:100248009E0067309B009C018B302000D200033059
:10025800D30083315F23813180302000D200033006
:10026800D30083315923813184302000D2000330F8
:10027800D3008331652381312000BE01C301C2014F
:100288000830D4005408E100C101C001BF012100B9
:1002980091160800F501F601700871040319552933
:1002A80056298529F701F70A62290130F035F10D41
:1002B800890B5A290130F4007408F707F11F6529E2
:1002C800662959290130F535F60D890B672971081A
:1002D8007302031D712970087202031C74297529A1
:1002E8007A297008F2027108F33B75140130F1366F
:1002F800F00C890B7B290130F702031D842985291D
:1003080066297608F1007508F00008002000410809
:10031800203E86008701810123001D1D942995290F
:10032800A02920004108203E8600870181145A0830
:100338008A0059080A00813123009D1CA429A52997
:10034800B02920004108203E860087010115580881
:100358008A0057080A00813120004108203E8600A3
:10036800870101080319B929BA29C02956088A0042
:1003780055080A008131C3298231B522813108002C
:10038800780879040319C929CA29F329FD01FD0A46
:10039800D6290130F835F90D890BCE290130FC003A
:1003A8007C08FD07F91FD929DA29CD2979087B02AC
:1003B800031DE02978087A02031CE329E429E829C7
:1003C8007808FA027908FB3B0130F936F80C890BFA
:1003D800E9290130FD02031DF229F329DA297B08F6
:1003E800F9007A08F800080001302000BC07003046
:1003F800BD3D00303D02643003193C02031C052A50
:10040800062A272A83313A238131003A03190D2A13
:100418000E2A222A023082319B2281317108200063
:10042800BB007008BA007730C4008330C5003B08B1
:10043800C7003A08C6008031482081312000BC013D
:10044800BD01BA01BB010800F100200061080319D1
:100458002E2A2F2A292A2100111A332A342A382A27
:10046800710823009A004F2A11127108F000200029
:100478004308303E86008701700881000130F00093
:100488007008C30708304302031C4B2A4C2A4D2A24
:10049800C3010130E10221001116080022008C017D
:1004A8008E01063021008C0020308E0023008E0142
:1004B80006308C0024008C018E0121009517250040
:1004C8008C018E01373026008C003F308E003F3083
:1004D80027008C003F308E0015303C00A4000C3003
:1004E8003D00A1001430A40008000830200061027B
:1004F80003187F2A802A982A4208303E86008701FE
:10050800010823009A000130F00070082000C2079B
:1005180008304202031C912A922A932AC201013010
:10052800F0007008E1079A2A210011120800F30070
:100538007308F200F20DF20D21001D0872068339CE
:1005480072069D001D1400320032000021009D1427
:100558009D18AF2AB02AAC2A1C08F1001B08F0002D
:10056800080023001908F00020004108283E8600F2
:100578008701700881000130F0007008C107083059
:100588004102031CC82AC92ACA2AC1010130F00045
:100598007008BF070800033020009B009A019110E3
:1005A80021009114F8302000D2000130D3008331AB
:1005B800472382311F3020009C0083312023823161
:1005C800833188238231080082315222823183317B
:1005D8003223823183317C23823183312923823152
:1005E8008331202382318231CF22823181310A2125
:1005F8008231080020005F0860040319042B052BD2
:100608000A2B60088A005F080A008331080023006B
:100618009E169D178231E82283318B170B17132BF7
:1006280080313A28013400340A3400346434003408
:10063800E834033410342734423021009E009F01EF
:100648009B019C0101309D0008001C30250093008F
:100658003E3091009201FC309E0508006A3021006E
:1006680099009A01980122009601080003102100C0
:100678009D1C03140030093D08006400800101310D
:10068800890B422B003420005308E0005208DF0099
:10069800080020005308DE005208DD000800200092
:1006A8005308DC005208DB00080020005308D8007B
:1006B8005208D700080020005308DA005208D90071
:1006C800080020005308D6005208D5000800200072
:1006D80091108231FE2283310800F20072088231C3
:1006E800282283310800253464340D340A34003458
:1006F800163021009700080023001D121D1608005F
:100708008231B5228331080021009D1408000800B9
:020000040001F9
:04000E00E439FF1EB4
:00000001FF
