:020000040000FA
:08000000803102288731F52F41
:100C8C00163021009700080071082000DE00700863
:100C9C00DD00080071082000E2007008E100080087
:100CAC0071082000E0007008DF000800F1007108F6
:100CBC0086318A2686310800640080010131890B57
:100CCC00632E00347030210099009A0198012200A3
:100CDC00960108007C3020009B009A0191107C301A
:100CEC009C000800123021009E009F019B019C017A
:100CFC0001309D0008001C30250093003E3091000F
:100D0C009201FC309E050800F0002000111E8F2E71
:100D1C00902E8B2E700823009A00080023009E163C
:100D2C009D178631B726863100302000D8008830D8
:100D3C00D9008631A5268631A22E803102285A3060
:100D4C00FD007D082000DC005908D1005808D000B7
:100D5C005C30FD007D08D2000030873114278631CD
:100D6C0008008631EF268631863168268631863139
:100D7C004626863186318126863186317826863123
:100D8C008631702686318631CD26863108000830B2
:100D9C0023009F0090309D0024309E00CF309B009C
:100DAC009C010030F0000030F10086315026863175
:100DBC000030F0000030F1008631562686310030CC
:100DCC00F0000030F10086314A2686312000CA013D
:100DDC00080022008C018E01033021008C00203091
:100DEC008E0023008E0103308C0024008C018E01B8
:100DFC002100951725008C018E01373026008C00C0
:100E0C003F308E003F3027008C003F308E00153075
:100E1C003C00A40014303D00A40008002000D500C4
:100E2C005108D7005008D600C001C1012E2F5630F2
:100E3C00D3005308FA005208D4005408FB0055089C
:100E4C0087317B2787317A082000C0077B08C13D9A
:100E5C0056088400570885001200031D362F372FC3
:100E6C001D2F4108D1004008D00008007408031958
:100E7C00402F412F462F7408031D452F462F4B2F13
:100E8C00720886315C2687317A2F7408033E8600FF
:100E9C008701160001040319542F552F722F740863
:100EAC00033E86008701403FF500413FF600740A7F
:100EBC0086008701403FF700413FF8007808803AF0
:100ECC00F9007608803A7902031D6E2F75087702B7
:100EDC000318712F722F7A2F740A86008701013044
:100EEC00810741310318810A0800FC007A0886004A
:100EFC008701403F2000CB00413FCC004B088400D1
:100F0C004C0885001200253A031D8D2F8E2FD22FF1
:100F1C007A08860087010130810741310318810A64
:100F2C00C201C301C601C701FF30C400FF30C500B8
:100F3C007A0886008701403FCB00413FCC004B082C
:100F4C0084004C0885001200253A031DAE2FAF2FEC
:100F5C00C72F7A08860087010130810741310318B9
:100F6C00810A2530F2000030F3007C08CB004B08DE
:100F7C00F40087313C2787310130FA000030FB0048
:100F8C00F42F7A088600870101308107413103185C
:100F9C00810AFA01FB01F42F7A0886008701403F91
:100FAC00CB00413FCC004B0884004C088500000866
:100FBC00CD00CE014D08F2004E08F3007C08CF00A6
:100FCC004F08F40087313C2787317A088600870167
:100FDC000130810741310318810AC22F08002030EB
:100FEC008400003085002B3086316226873120004A
:100FFC008631942E483465346C346C346F34203420
:10100C0057346F3472346C34643421340A34003401
:020000040001F9
:04000E00E439FF1EB4
:00000001FF
