:020000040000FA
:1000000080313C28080008007E1480310B1F09282D
:100010000A283A282100111E0E280F281B2820002C
:10002000111E132814281B28210044088A004308A5
:100030000A0080313A282100911E1F2820282C28F0
:100040002000911E242825282C28210042088A00FF
:1000500041080A0080313A282100911C30283128BB
:100060003A282000911C352836283A288F3101275C
:1000700080313A287E10090080313E28FC012000A2
:10008000EC01ED01EE01EF01A030840000308500AD
:100090001B308F31312780317E1020008531CB2DF0
:1000A000200043088039C8004808CD004335C80007
:1000B0004808D300C21F5D285E285F2853145308E8
:1000C0000319632864287328530A031D68286928C4
:1000D00071280030C3000030C2000030C100003081
:1000E000C000C2177B280030C3000030C2000030BF
:1000F000C1000030C00047088039C8004808CD065C
:100100004735C8004808D200C61F87288828892894
:100110005214520803198D288E289D28520A031D57
:10012000922893289B280030C7000030C60000307A
:10013000C5000030C400C617A5280030C700003035
:10014000C6000030C5000030C40052080319A928B9
:10015000AA28AF285308031DAE28AF28B8280030BE
:10016000C3000030C2000030C1000030C000A62A29
:100170004008C8004808F10046088F31DD2780316B
:1001800072082000D9007108D8005808C800C901B9
:10019000CA01CB014B08D1004A08D0004908CF0062
:1001A0004808CE005908C800C901CA01CB014B0854
:1001B000D7004A08D6004908D5004808D4004108AD
:1001C000C8004808F10045088F31DD2780317208EA
:1001D0002000D9007108D8005808C800C901CA0118
:1001E000CB014808CE074908CF3D4A08D03D4B080F
:1001F000D13D5908C800C901CA01CB014808D4073C
:100200004908D53D4A08D63D4B08D73D4208C800AD
:100210004808F10044088F31DD2780317208200042
:10022000D9007108D8005808C800C901CA01CB011B
:100230004808CE074908CF3D4A08D03D4B08D13D7C
:100240005908C800C901CA01CB014808D4074908A8
:10025000D53D4A08D63D4B08D73D0830CE35CF0DA9
:10026000D00DD10D890B2E294108C8004808F10096
:1002700044088F31DD27803172082000D9007108D1
:10028000D8005808CE075908CF3D0030D03DD13DA9
:100290004008C8004808F10045088F31DD2780314B
:1002A00072082000D9007108D8005808CE075908F4
:1002B000CF3D0030D03DD13D0830CE35CF0DD00DF3
:1002C000D10D890B5D294008C8004808F100440899
:1002D0008F31DD27803172082000D9007108D800E5
:1002E0005808CE075908CF3D0030D03DD13D4108D8
:1002F000C8004808F10046088F31DD2780317208B8
:100300002000D9007108D8005808D4075908D53DF5
:100310000030D63DD73D4208C8004808F1004508E6
:100320008F31DD27803172082000D9007108D80094
:100330005808D4075908D53D0030D63DD73D42086E
:10034000C8004808F10046088F31DD278031720867
:100350002000D9007108D8005808C8005908C90001
:10036000CA01CB010830C835C90DCA0DCB0D890BA8
:10037000B3294808D4074908D53D4A08D63D4B085B
:10038000D73D4E08C8004F08C9005008CA005108A0
:10039000CB001830CB36CA0CC90CC80C890BCA2943
:1003A0004808D4074908D53D4A08D63D4B08D73DF3
:1003B0000830CE35CF0DD00DD10D890BD92953087A
:1003C0005207C800C901C90D4808823ED800FF3055
:1003D000493DD900022A0130D435D50DD60DD70DAF
:1003E000890BEC29D11FF529F629F729541401307E
:1003F000CE35CF0DD00DD10D890BF829FF30D807A0
:10040000FF30D93DD61F052A062AEB29D201D11F7C
:100410000A2A0B2A272AFF304E05C800FF304F0555
:10042000C900FF305005CA007F305105CB004B0892
:100430004A044904480403191E2A1F2A222AD20109
:10044000D20A272A541C252A262A272A1F2A52087C
:1004500003192B2A2C2A542A0130D4070030D53D09
:100460000030D63D0030D73D571C372A382A542A51
:100470005408C8005508C9005608CA005708CB00E0
:100480000130CC00CB37CA0CC90CC80CCC0B422AAB
:100490004B08D7004A08D6004908D5004808D400C0
:1004A0000130D8070030D93D5908803AC800803063
:1004B0004802031D5D2AFF305802031C602A612A8E
:1004C0006B2A7F302000D7008030D6000030D50066
:1004D0000030D4009A2A20005908803AC8008030A1
:1004E0004802031D752A013058020318782A792A18
:1004F000842A00302000D7000030D6000030D5001C
:100500000030D400CD019A2A20005808C8004808BD
:10051000D300FF30D405FF30D5057F30D60500303D
:10052000D705531C942A952A962AD6175336C80005
:100530004808D7004D08C8004808D7045708C3002A
:100540005608C2005508C1005408C0000800200029
:100550002D088039AE002E08B7002D35AE002E08CC
:10056000BE00AC1FB42AB52AB62A3E143E080319B1
:10057000BA2ABB2ACB2A3E0A031DBF2AC02AC82A90
:100580000030AD000030AC000030AB000030AA00FD
:10059000AC17AD01D32A0030AD000030AC00003004
:1005A000AB000030AA0029088039AE002E08B7063B
:1005B0002935AE002E08BF00A81FDF2AE02AE12A55
:1005C0003F143F080319E52AE62AF62A3F0A031DCD
:1005D000EA2AEB2AF32A0030A9000030A8000030F4
:1005E000A7000030A600A817A901FE2A0030A90024
:1005F0000030A8000030A7000030A6002908280419
:1006000027042604031D052B062B1F2B0030AD00ED
:100610000030AC000030AB000030AA008030AC04E9
:100620007F30AD043708AE002E08AD042D08A900B8
:100630002C08A8002B08A7002A08A6005A2C3E0860
:10064000031D232B242B2D2B0030A9000030A800E4
:100650000030A7000030A6005A2C3E08AE00AF01C3
:100660002F08B1003F082E02B000031CB103300870
:100670007F3EB8000030313DB9002D08B6002C088F
:10068000B5002B08B4002A08B3000030AD000030DC
:10069000AC000030AB000030AA000030BD000030DC
:1006A000BC000030BB000030BA00BF01952B3F08F2
:1006B00003195B2B5C2B762B0130B335B40DB50DD4
:1006C000B60D890B5D2B0130AA35AB0DAC0DAD0D10
:1006D000890B642BBD1F6D2B6E2B6F2B2A140130E1
:1006E000BA35BB0DBC0DBD0D890B702B2908360228
:1006F000031D842B28083502031D842B2708340290
:10070000031D842B26083302031C872B882B912B77
:100710003D172608B3022708B43B2808B53B290833
:10072000B63B0130AE002E08BF071A303F02031C53
:100730009A2B9B2B572B36083504340433040319AA
:10074000A22BA32BBC2B3A14BC2B0130AA35AB0D2A
:10075000AC0DAD0D890BA62BBD1FAF2BB02BB12B54
:100760002A140130BA35BB0DBC0DBD0D890BB22B5F
:10077000FF30B807FF30B93DAC1FBF2BC02BA52BF6
:10078000BF01BD1FC42BC52BE12BFF303A05AE00C6
:10079000FF303B05AF00FF303C05B0007F303D052A
:1007A000B100310830042F042E040319D82BD92BA3
:1007B000DC2BBF01BF0AE12B2A1CDF2BE02BE12B36
:1007C000D92B3F080319E52BE62B0E2C0130AA0785
:1007D0000030AB3D0030AC3D0030AD3D2D1CF12B69
:1007E000F22B0E2C2A08AE002B08AF002C08B0000C
:1007F0002D08B1000130B200B137B00CAF0CAE0C17
:10080000B20BFC2B3108AD003008AC002F08AB0058
:100810002E08AA000130B8070030B93D3908803AE7
:10082000AE0080302E02031D172CFF303802031C4F
:100830001A2C1B2C282CFF302000B8000030B900E7
:100840000030AD000030AC000030AB000030AA003A
:1008500020003908803AAE0080302E02031D322C71
:10086000013038020318352C362C422C2000B801F8
:10087000B9010030AD000030AC000030AB000030FA
:10088000AA00B70120003808AE002E08BE003E1CAA
:100890004A2C4B2C4D2CAC17512C7F30AE002E081F
:1008A000AC053E36AE002E08AD003708AE002E086F
:1008B000AD04162B080026302000A8002808AC0044
:1008C000082D253031060319662C672C6C2C310855
:1008D0008F312B278431082DAD012508A90024086C
:1008E000A800A40A0319A50A28088400290885007D
:1008F0000008B100003A03191D2D643A0319842C35
:100900000D3A0319842C082D2C0886008701403FDE
:10091000AF00413FB0000230A8002808AC07B01F6C
:10092000922C932C9C2C0330A8002808AD04AF090E
:10093000B009AF0A0319B00AB101B10A3108A80021
:10094000A901A835A90D0030280784009030293D61
:100950008500003FAA00013FAB002B083002031DB9
:10096000B32C2A082F020318B62CB72CB82CC22C93
:100970000130A8002808B10705303106031DC12C3D
:10098000C22C9E2C2D0803390319C72CC82CCC2C43
:100990002D308F312B27843120003108A800280802
:1009A000AE00FE2C0A30A0000030A1002E08A800E6
:1009B000A901A835A90D0030280784009030293DF1
:1009C0008500003FF100013FF2003008F4002F08DD
:1009D000F30087310527843172082000A3007108D5
:1009E000A20087317A27843120002008303EAA00F7
:1009F0002A08B10031088F312B278431FF302000C5
:100A0000A8002808AE072E0A031D072D082DD22C9A
:100A100020002508A9002408A800A40A0319A50A93
:100A200028088400290885000008AA002A08B100C7
:100A30003108031D1C2D1D2D612C08002000A00075
:100A400020080319242D252D392DF41F282D292D9B
:100A5000392D7109A2007209A3007309A400740959
:100A6000A500A20A0319A30A0319A40A0319A50AD7
:100A7000412D7408A5007308A4007208A300710832
:100A8000A2007408730472047104031D482D492DDB
:100A9000522D0030F4000030F3000030F20000303E
:100AA000F100CA2D9630F5007508A100622D0130C5
:100AB000F5007508A1070130A536A40CA30CA20C03
:100AC000890B5C2DFE302505031D672D682D572DE4
:100AD0007C2D0130F5007508A1070130A207003018
:100AE000A33D0030A43D0030A53D0130A536A40C47
:100AF000A30CA20C890B762DFF302505031D812D3B
:100B0000822D692D8C2D0130A1020130A235A30D5B
:100B1000A40DA50D890B862DA41B8F2D902D962D30
:100B2000023021020318952D962D832D2118992D21
:100B30009A2DA22DFF30A205FF30A3057F30A4051A
:100B4000FF30A5050310A10C2108F500F601F701FF
:100B5000F8011830F535F60DF70DF80D890BAA2DB3
:100B60007508A2047608A3047708A4047808A504ED
:100B700020080319BC2DBD2DC22DF41FC02DC12D81
:100B8000C22DA5172508F4002408F3002308F2005D
:100B90002208F100080023009E169D178F31702750
:100BA00085318B170B1732302000EA000030EB0044
:100BB000E830E8000330E90002308F31A0278531AA
:100BC00072082000E5007108E4006408F10065087F
:100BD000F200F301F401003085311E2585317408DF
:100BE0002000AD007308AC007208AB007108AA00C9
:100BF0004330A9007F30A8000030A7000030A600D5
:100C00008231A722853120002908C7002808C600A4
:100C10002708C5002608C4006A086802F1006B08AE
:100C2000693BF200F301F401003085311E25853166
:100C300074082000C3007308C2007208C100710864
:100C4000C00080315020853120004308DD0042087B
:100C5000DC004108DB004008DA0086314E26853191
:100C600020006A085A07E6006B085B3DE7000A307F
:100C7000A4009030A5006708A7006608A60084318C
:100C80005B24853141302000E300EE30890B462E95
:100C9000E30B462E0000DC2D80313C2803102000A1
:100CA0005C0D5D0DDE005E08FB007B08031D592E08
:100CB0005A2E632E0030DD000030DC000030DB00F7
:100CC0000030DA00C22E5A08DE005B08DF005C0844
:100CD000E0005D08E1001F30E136E00CDF0CDE0CC7
:100CE000890B6C2E5E08E2006208FA00DC17FF3008
:100CF000DA05FF30DB05FF30DC050030DD0596301E
:100D0000FB02FB1F842E852E9D2E7B08803A973E8A
:100D100003188B2E8C2E8D2E5A2E0130DD36DC0CD6
:100D2000DB0CDA0C890B8E2E0130DE005E08FB072F
:100D3000031D9B2E9C2E8D2EB22E20307B02031C79
:100D4000A22EA32EAD2E5A2E0130DA35DB0DDC0D8E
:100D5000DD0D890BA52E0130FB027B08031DB12E92
:100D6000B22EA42E7A080319B62EB72EC22EDA0997
:100D7000DB09DC09DD09DA0A0319DB0A0319DC0ADD
:100D80000319DD0A0800210091124130F1000730FB
:100D9000F2008F311927863121001112BA30F1008B
:100DA0000F30F2008F311F278631083023009F005B
:100DB00090309D0024309E0067309B009C010230E3
:100DC000F1000030F2008F310D278631F930F1004B
:100DD0000E30F2008F3113278631F530F1000E30DE
:100DE000F2008F31072786312100BA012000EF0180
:100DF000EE010830F30073082100C700FC01200059
:100E0000ED01EC01210091160800F601F7017108CF
:100E1000720403190C2F0D2F3C2FF801F80A192F1B
:100E20000130F135F20D890B112F0130F5007508F5
:100E3000F807F21F1C2F1D2F102F0130F635F70D6C
:100E4000890B1E2F72087402031D282F710873026C
:100E5000031C2B2F2C2F312F7108F3027208F43B47
:100E600076140130F236F10C890B322F0130F80282
:100E7000031D3B2F3C2F1D2F7708F2007608F10051
:100E800008007C08A03E86008701810123001D1D0B
:100E90004A2F4B2F562F7C08A03E860087018114D5
:100EA000210040088A003F080A00873123009D1C6A
:100EB0005A2F5B2F662F7C08A03E86008701011504
:100EC00021003E088A003D080A0087317C08A03EC8
:100ED00086008701010803196E2F6F2F762F2100DE
:100EE0003C088A003B080A008731792F8F3186271A
:100EF000873108002000200821040319802F812F4A
:100F0000AA2FFA01FA0A8D2F0130A035A10D890B05
:100F1000852F0130F9007908FA07A11F902F912F32
:100F2000842F21082302031D972F20082202031C6F
:100F30009A2F9B2F9F2F2008A2022108A33B01304C
:100F4000A136A00C890BA02F0130FA02031DA92F96
:100F5000AA2F912F2308A1002208A0000800F20068
:100F6000210047080319B52FB62FB02F111AB92F3A
:100F7000BA2FBE2F720823009A00D62F11127208C2
:100F8000F10020006F08B03E8600870171088100E3
:100F90000130F1007108EF0708306F02031CD12FF8
:100FA000D22FD32FEF0101302100C70221001116EB
:100FB000080022008C018E01043021008C002030BA
:100FC0008E0023008E0104308C0024008C018E01E1
:100FD0002100951725008C018E01373026008C00EA
:100FE0003F308E003F3027008C003F308E001530A0
:100FF0003C00A4000C303D00A1001430A400080007
:101DEA008F3186278E31080023001D121D16080028
:101DFA001630210097000800200091108F315127DA
:101E0A008F31080072082100BC007108BB0008006D
:101E1A0072082100C0007108BF0008007208210082
:101E2A00BE007108BD00080072082100C2007108D6
:101E3A00C100080072082100C4007108C30008002C
:101E4A0072082100C6007108C5000800F300730873
:101E5A008731AF278F310800640080010131890B77
:101E6A00322F00346A30210099009A019801220029
:101E7A0096010800C03021009E009F019B019C0131
:101E8A0009309D0008001C30250093003E30910067
:101E9A009201FC309E0508002100450846040319FA
:101EAA00572F582F5D2F46088A0045080A008F31A0
:101EBA000800033020009B009A0191102100911420
:101ECA000330F1000030F2008F3125278F311F30A7
:101EDA0020009C0008008731D9278F318F3137279E
:101EEA008F318E31FD268F318F3148278F318F31D7
:101EFA003F278F318F315E278F318631C3268F314D
:101F0A00080023001908F0007C08A83E8600870113
:101F1A00700881000130F0007008FC0708307C026C
:101F2A00031C982F992F9A2FFC010130F00070089A
:101F3A002000EC070800F4007408F300F30DF30D19
:101F4A0021001D087306833973069D001D14003293
:101F5A000032000021009D149D18B42FB52FB12F17
:101F6A001C08F2001B08F100080008302100470293
:101F7A000318C02FC12FDB2F20006E08B03E860049
:101F8A008701010823009A000130F0007008200040
:101F9A00EE0708306E02031CD32FD42FD52FEE0183
:101FAA000130F00070082100C707DC2F1112080069
:101FBA00F900F501F6017108F300F4017308F7005E
:101FCA007408F800791CEA2FEB2FEF2F7708F50732
:101FDA007808F63D0130F735F80D890BF02F03101C
:101FEA00F90C7908031DFA2FFB2FE72F7608F20068
:101FFA007508F1000800013400340A3400346434EE
:10200A000034E834033410342734253464340D346E
:04201A000A34003450
:020000040001F9
:04000E00E439FF1EB4
:00000001FF
