:020000040000FA
:0400000080313C28E7
:1000060008007E1480310B1F09280A283A2821008F
:10001600111E0E280F281B282000111E1328142835
:100026001B2821005B088A005A080A0080313A28FA
:100036002100911E1F2820282C282000911E2428EC
:1000460025282C28210059088A0058080A008031E2
:100056003A282100911C302831283A282000911C8A
:10006600352836283A288B31F32380313A287E10FA
:10007600090080313E28FC012000E901EA01EB017C
:10008600EC01ED01A0308400003085001A30873184
:10009600F92780317E1020008731572F200029084C
:1000A6008039AE002E08B3002935AE002E08B900FF
:1000B600A81F5E285F2860283914390803196428A8
:1000C60065287428390A031D69286A2872280030B1
:1000D600A9000030A8000030A7000030A600A8172D
:1000E6007C280030A9000030A8000030A7000030AE
:1000F600A6002D088039AE002E08B3062D35AE00B9
:100106002E08B800AC1F882889288A283814380891
:1001160003198E288F289E28380A031D93289428B1
:100126009C280030AD000030AC000030AB00003041
:10013600AA00AC17A6280030AD000030AC00003095
:10014600AB000030AA0038080319AA28AB28B0284B
:100156003908031DAF28B028B9280030A90000309F
:10016600A8000030A7000030A600A72A2608AE0087
:100176002E08F1002C088C31C8248031720820002A
:10018600BF007108BE003E08AE00AF01B001B1016C
:100196003108B7003008B6002F08B5002E08B400A5
:1001A6003F08AE00AF01B001B1013108BD00300813
:1001B600BC002F08BB002E08BA002708AE002E0888
:1001C600F1002B088C31C824803172082000BF0052
:1001D6007108BE003E08AE00AF01B001B1012E08A5
:1001E600B4072F08B53D3008B63D3108B73D3F0886
:1001F600AE00AF01B001B1012E08BA072F08BB3D12
:100206003008BC3D3108BD3D2808AE002E08F1007F
:100216002A088C31C824803172082000BF0071087A
:10022600BE003E08AE00AF01B001B1012E08B40712
:100236002F08B53D3008B63D3108B73D3F08AE0042
:10024600AF01B001B1012E08BA072F08BB3D300837
:10025600BC3D3108BD3D0830B435B50DB60DB70D02
:10026600890B2F292708AE002E08F1002A088C31A9
:10027600C824803172082000BF007108BE003E0805
:10028600B4073F08B53D0030B63DB73D2608AE0081
:100296002E08F1002B088C31C8248031720820000A
:1002A600BF007108BE003E08B4073F08B53D0030E8
:1002B600B63DB73D0830B435B50DB60DB70D890B53
:1002C6005E292608AE002E08F1002A088C31C824C3
:1002D600803172082000BF007108BE003E08B407D6
:1002E6003F08B53D0030B63DB73D2708AE002E08A5
:1002F600F1002C088C31C824803172082000BF0020
:100306007108BE003E08BA073F08BB3D0030BC3D41
:10031600BD3D2808AE002E08F1002B088C31C824FC
:10032600803172082000BF007108BE003E08BA077F
:100336003F08BB3D0030BC3DBD3D2808AE002E0841
:10034600F1002C088C31C824803172082000BF00CF
:100356007108BE003E08AE003F08AF00B001B10113
:100366000830AE35AF0DB00DB10D890BB4292E088E
:10037600BA072F08BB3D3008BC3D3108BD3D3408E7
:10038600AE003508AF003608B0003708B1001830A7
:10039600B136B00CAF0CAE0C890BCB292E08BA07C0
:1003A6002F08BB3D3008BC3D3108BD3D0830B43593
:1003B600B50DB60DB70D890BDA2939083807AE0029
:1003C600AF01AF0D2E08823EBE00FF302F3DBF00AD
:1003D600032A0130BA35BB0DBC0DBD0D890BED29C5
:1003E600B71FF629F729F8293A140130B435B50DA7
:1003F600B60DB70D890BF929FF30BE07FF30BF3D9B
:10040600BC1F062A072AEC29B801B71F0B2A0C2A9B
:10041600282AFF303405AE00FF303505AF00FF3027
:100426003605B0007F303705B100310830042F049F
:100436002E0403191F2A202A232AB801B80A282ABB
:100446003A1C262A272A282A202A380803192C2A61
:100456002D2A552A0130BA070030BB3D0030BC3D7D
:100466000030BD3D3D1C382A392A552A3A08AE00CF
:100476003B08AF003C08B0003D08B1000130B200B7
:10048600B137B00CAF0CAE0CB20B432A3108BD002D
:100496003008BC002F08BB002E08BA000130BE078A
:1004A6000030BF3D3F08803AAE0080302E02031D6B
:1004B6005E2AFF303E02031C612A622A6C2A7F30C4
:1004C6002000BD008030BC000030BB000030BA0008
:1004D6009B2A20003F08803AAE0080302E02031D82
:1004E600762A01303E020318792A7A2A852A0030B4
:1004F6002000BD000030BC000030BB000030BA0058
:10050600B3019B2A20003E08AE002E08B900FF303A
:10051600BA05FF30BB057F30BC050030BD05391C70
:10052600952A962A972ABC173936AE002E08BD00A2
:100536003308AE002E08BD043D08A9003C08A800FB
:100546003B08A7003A08A6000800200043088039A7
:10055600C8004808D0004335C8004808D200C21F6A
:10056600B52AB62AB72A521452080319BB2ABC2A3E
:10057600CC2A520A031DC02AC12AC92A0030C30048
:100586000030C2000030C1000030C000C217C301F5
:10059600D42A0030C3000030C2000030C100003051
:1005A600C00047088039C8004808D10051085006E5
:1005B6000319DE2ADF2AE02A50174735C800480803
:1005C600D100C61FE72AE82AE92A5114510803195F
:1005D600ED2AEE2AFE2A510A031DF22AF32AFB2AE5
:1005E6000030C7000030C6000030C5000030C4002F
:1005F600C617C701062B0030C7000030C600003002
:10060600C5000030C4005208510203180B2B0C2BF6
:10061600502B501F0F2B102B142B8030C80048086E
:10062600D0065208C8004808D3005108C800480838
:10063600D2005308C8004808D1004008C80048083E
:10064600D3004408C8004808C0005308C80048083A
:10065600C4004108C8004808D3004508C800480837
:10066600C1005308C8004808C5004208C800480829
:10067600D3004608C8004808C2005308C800480806
:10068600C6004308C8004808D3004708C800480801
:10069600C3005308C8004808C700D3015108C80062
:1006A600C9014908CB0052084802CA00031CCB0303
:1006B6004B08803ACC0080304C02031D642B1A3064
:1006C6004A02031C672B682BA02B20004308420418
:1006D60041044004031D702B722B0130732B003034
:1006E600C8004808D3000030C3000030C200003004
:1006F600C1000030C0005108C8004808D200A72B2E
:10070600531C862B872B8D2B53360138C80048087F
:10071600D3008F2B0310D30C401C922B932B942BBE
:10072600D3170130C800C337C20CC10CC00CC80BAC
:10073600962B0130C8004808D20720005108520203
:10074600031CA62BA72B832B501BAA2BAB2BE32B0F
:100756005208031DAF2BB02BB92B0030C30000305D
:10076600C2000030C1000030C000DF2C4408C007C2
:100776004508C13D4608C23D4708C33D431CC42B3E
:10078600C52B6F2C531CC82BC92BCF2B53360138C6
:10079600C8004808D300D12B0310D30C401CD42B1F
:1007A600D52BD62BD3170130C800C337C20CC10CCA
:1007B600C00CC80BD82B0130C8004808D2076F2CD4
:1007C6004308803AC8004708803A4802031DF52BC3
:1007D60046084202031DF52B45084102031DF52B71
:1007E600440840020318F82BF92B312CFF30C800BF
:1007F600FF30C900FF30CA00FF30CB00400844027A
:10080600CC004108453BCD004208463BCE0043089C
:10081600473BCF004C08C8074D08C93D4E08CA3DA6
:100826004F08CB3D4B08C3004A08C2004908C10027
:100836004808C0008030C8004808D006D309D30A4B
:100846005308031D272C282C392C0130C0070030F3
:10085600C13D0030C23D0030C33D392C4408C002C2
:100866004508C13B4608C23B4708C33B4308420410
:1008760041044004031D402C412C6B2C5308031DDE
:10088600452C462C6B2C0030C3000030C2000030D3
:10089600C1000030C000DF2C0130C035C10DC20DD3
:1008A600C30D890B502CD31F592C5A2C5B2C40148A
:1008B600531C5E2C5F2C622C0314D30D642C031086
:1008C600D30D52080319682C692C6B2C0130D20207
:1008D600C21F6E2C6F2C4F2CD101D31F732C742C7E
:1008E600822C53087F390319792C7A2C7D2CD1015F
:1008F600D10A822C401C802C812C822C7A2C510807
:100906000319862C872CB42C0130C0070030C13D5A
:100916000030C23D0030C33D431C922C932CB42CB6
:100926004008C8004108C9004208CA004308CB0075
:100936000130CC00CB37CA0CC90CC80CCC0B9D2C93
:100946004B08C3004A08C2004908C1004808C00055
:10095600520A0319AF2CB02CB42C0130C800480839
:10096600D207520A0319B82CB92CBE2C5208031D03
:10097600BD2CBE2CCC2C0030C3000030C200003091
:10098600C1000030C0005208031DCA2CCB2CCC2C51
:10099600D001521CCF2CD02CD22CC217D62C7F3093
:1009A600C8004808C2055236C8004808C300D01F10
:1009B600DD2CDE2CDF2CC317080020002D08803923
:1009C600AE002E08B7002D35AE002E08BE00AC1FB7
:1009D600ED2CEE2CEF2C3E143E080319F32CF42CD0
:1009E600042D3E0A031DF82CF92C012D0030AD0014
:1009F6000030AC000030AB000030AA00AC17AD01EF
:100A06000C2D0030AD000030AC000030AB000030E3
:100A1600AA0029088039AE002E08B7062935AE008F
:100A26002E08BF00A81F182D192D1A2D3F143F0898
:100A360003191E2D1F2D2F2D3F0A031D232D242D97
:100A46002C2D0030A9000030A8000030A70000308F
:100A5600A600A817A901372D0030A9000030A8006C
:100A66000030A7000030A600290828042704260421
:100A7600031D3E2D3F2D582D0030AD000030AC003B
:100A86000030AB000030AA008030AC047F30AD04EB
:100A96003708AE002E08AD042D08A9002C08A800C2
:100AA6002B08A7002A08A600932E3E08031D5C2DDE
:100AB6005D2D662D0030A9000030A8000030A7008B
:100AC6000030A600932E3E08AE00AF012F08B100FD
:100AD6003F082E02B000031CB10330087F3EB80069
:100AE6000030313DB9002D08B6002C08B5002B08A2
:100AF600B4002A08B3000030AD000030AC0000306E
:100B0600AB000030AA000030BD000030BC00003051
:100B1600BB000030BA00BF01CE2D3F080319942D4B
:100B2600952DAF2D0130B335B40DB50DB60D890B2E
:100B3600962D0130AA35AB0DAC0DAD0D890B9D2D53
:100B4600BD1FA62DA72DA82D2A140130BA35BB0D21
:100B5600BC0DBD0D890BA92D29083602031DBD2D1F
:100B660028083502031DBD2D27083402031DBD2D9F
:100B760026083302031CC02DC12DCA2D3D17260899
:100B8600B3022708B43B2808B53B2908B63B013019
:100B9600AE002E08BF071A303F02031CD32DD42DFA
:100BA600902D36083504340433040319DB2DDC2D6F
:100BB600F52D3A14F52D0130AA35AB0DAC0DAD0D62
:100BC600890BDF2DBD1FE82DE92DEA2D2A140130F2
:100BD600BA35BB0DBC0DBD0D890BEB2DFF30B8072B
:100BE600FF30B93DAC1FF82DF92DDE2DBF01BD1F1D
:100BF600FD2DFE2D1A2EFF303A05AE00FF303B05C7
:100C0600AF00FF303C05B0007F303D05B100310834
:100C160030042F042E040319112E122E152EBF0197
:100C2600BF0A1A2E2A1C182E192E1A2E122E3F080B
:100C360003191E2E1F2E472E0130AA070030AB3D8A
:100C46000030AC3D0030AD3D2D1C2A2E2B2E472EFC
:100C56002A08AE002B08AF002C08B0002D08B10002
:100C66000130B200B137B00CAF0CAE0CB20B352E62
:100C76003108AD003008AC002F08AB002E08AA00E2
:100C86000130B8070030B93D3908803AAE008030EF
:100C96002E02031D502EFF303802031C532E542EF5
:100CA600612EFF302000B8000030B9000030AD00E2
:100CB6000030AC000030AB000030AA00200039083C
:100CC600803AAE0080302E02031D6B2E01303802B2
:100CD60003186E2E6F2E7B2E2000B801B90100304E
:100CE600AD000030AC000030AB000030AA00B70108
:100CF60020003808AE002E08BE003E1C832E842E2F
:100D0600862EAC178A2E7F30AE002E08AC053E36F6
:100D1600AE002E08AD003708AE002E08AD044F2DEC
:100D2600080026302000AA002A08AE00412F2530F0
:100D3600330603199F2EA02EA52E33088C311D24B1
:100D46008631412FAF012508AB002408AA00A40A6A
:100D56000319A50A2A0884002B0885000008B30099
:100D6600003A0319562F643A0319BD2E0D3A03199A
:100D7600BD2E412F2E0886008701403FB100413F1E
:100D8600B2000230AA002A08AE07B21FCB2ECC2E24
:100D9600D52E0330AA002A08AF04B109B209B10A58
:100DA6000319B20AB301B30A3308AA00AB01AA3584
:100DB600AB0D00302A07840090302B3D8500003FA4
:100DC600AC00013FAD002D083202031DEC2E2C08AD
:100DD60031020318EF2EF02EF12EFB2E0130AA0061
:100DE6002A08B30705303306031DFA2EFB2ED72E2D
:100DF6002F0803390319002F012F052F2D308C31B1
:100E06001D24863120003308AA002A08B000372F97
:100E16000A30A0000030A1003008AA00AB01AA35B4
:100E2600AB0D00302A07840090302B3D8500003F33
:100E3600F100013FF2003208F4003108F3008D3171
:100E4600AA25863172082000A3007108A2008D3100
:100E56003C25863120002008303EAC002C08B3002B
:100E660033088C311D248631FF302000AA002A0861
:100E7600B007300A031D402F412F0B2F20002508F5
:100E8600AB002408AA00A40A0319A50A2A088400AC
:100E96002B0885000008AC002C08B3003308031D9E
:100EA600552F562F9A2E080023009E169D178C311B
:100EB6005C2487318B170B175A302100CC00003089
:100EC600CD009630CE000030CF003230C800003062
:100ED600C900E830CA000330CB0002308C318C24C4
:100EE600873172082100D1007108D0004D085102E7
:100EF600031D7F2F4C0850020318822F832F872F44
:100F06004D08D1004C08D00051084F02031D8D2F0B
:100F160050084E020318902F912F952F4F08D1009D
:100F26004E08D00051082000DE00210050082000A5
:100F3600DD0021004D082000E00021004C082000C3
:100F4600DF0021004F082000E20021004E082000AB
:100F5600E100210049082000E400210048082000A3
:100F6600E30021004B082000E60021004A0820008B
:100F7600E5008F314727873120005D0821004A02AE
:100F86002000E7005E0821004B3B2000E80021001E
:100F96004808200067072100C60049082000683D70
:100FA6002100C7000A302000A4009030A5002100CF
:100FB60051082000A700210050082000A6002100AB
:100FC60047082000A900210046082000A800863115
:100FD6009426873141302000E700EE30890BF12F4F
:100FE600E70BF12F0000702F80313C286400800150
:0A0FF6000131890BFA2F00340800C6
:1017CE008C3172248B31080023001D121D16080067
:1017DE001630210097000800200091108C313D2416
:1017EE008B31080072082100D3007108D200080066
:1017FE0072082100D7007108D60008007208210077
:10180E00D5007108D400080072082100D9007108B3
:10181E00D800080072082100DB007108DA00080009
:10182E0072082100DD007108DC000800F300730867
:10183E008D3112258C3108006A30210099009A01F1
:10184E009801220096010800C03021009E009F01E1
:10185E009B019C0109309D0008001C30250093005F
:10186E003E3091009201FC309E05080021005C087C
:10187E005D040319432C442C492C5D088A005C0836
:10188E000A008C310800033020009B009A01911051
:10189E0021009114FF30F1000730F2008C31172433
:1018AE008C311F3020009C0008008C31EB248C31D1
:1018BE008C3123248C318B31EF238C318C313424B9
:1018CE008C318C312B248C318C314A248C318D31DE
:1018DE00E6258C31080023001908F0007C08A83E8C
:1018EE0086008701700881000130F0007008FC0747
:1018FE0008307C02031C842C852C862CFC010130C4
:10190E00F00070082000EA070800F4007408F300E5
:10191E00F30DF30D21001D087306833973069D0028
:10192E001D1400320032000021009D149D18A02CC1
:10193E00A12C9D2C1C08F2001B08F1000800083099
:10194E0020006E020318AC2CAD2CC52C6C08B03EDA
:10195E0086008701010823009A000130F00070080C
:10196E002000EC0708306C02031CBE2CBF2CC02CD0
:10197E00EC010130F0007008EE07C72C21001112A7
:10198E000800F900F501F6017108F300F40173087F
:10199E00F7007408F800791CD52CD62CDA2C7708B1
:1019AE00F5077808F63D0130F735F80D890BDB2C7D
:1019BE000310F90C7908031DE52CE62CD22C7608C1
:1019CE00F2007508F100080022008C018E0104302F
:1019DE0021008C0020308E0023008E0104308C00FC
:1019EE0024008C018E012100951725008C018E019B
:1019FE00373026008C003F308E003F3027008C00A1
:101A0E003F308E0015303C00A4000C303D00A1008C
:101A1E001430A4000800F20020006E080319182DDF
:101A2E00192D132D2100111A1D2D1E2D222D720878
:101A3E0023009A00392D11127208F10020006D0852
:101A4E00B03E86008701710881000130F1007108F7
:101A5E00ED0708306D02031C352D362D372DED01A7
:101A6E000130EE022100111608002000200821048A
:101A7E000319422D432D6C2DFA01FA0A4F2D013018
:101A8E00A035A10D890B472D0130F9007908FA0711
:101A9E00A11F522D532D462D21082302031D592D12
:101AAE0020082202031C5C2D5D2D612D2008A20250
:101ABE002108A33B0130A136A00C890B622D013009
:101ACE00FA02031D6B2D6C2D532D2308A100220845
:101ADE00A00008007C08A03E86008701810123003B
:101AEE001D1D7A2D7B2D862D7C08A03E860087013C
:101AFE008114210057088A0056080A008D312300F0
:101B0E009D1C8A2D8B2D962D7C08A03E860087016C
:101B1E000115210055088A0054080A008D317C08F1
:101B2E00A03E86008701010803199E2D9F2DA62D2C
:101B3E00210053088A0052080A008D31A92D8C31DC
:101B4E0072248D310800F601F70171087204031931
:101B5E00B12DB22DE12DF801F80ABE2D0130F1356F
:101B6E00F20D890BB62D0130F5007508F807F21F3E
:101B7E00C12DC22DB52D0130F635F70D890BC32DB4
:101B8E0072087402031DCD2D71087302031CD02D33
:101B9E00D12DD62D7108F3027208F43B7614013064
:101BAE00F236F10C890BD72D0130F802031DE02D12
:101BBE00E12DC22D7708F2007608F1000800210011
:101BCE0091127130F1000D30F2008C310B248D31F9
:101BDE0021001112A630F1000C30F2008C311124CC
:101BEE008D31083023009F0090309D0024309E00E0
:101BFE0067309B009C010330F1000030F2008B3106
:101C0E00FF238D31EB30F1000B30F2008C310524C7
:101C1E008D31E730F1000B30F2008B31F9238D312D
:101C2E002000E901ED01EC010830F3007308EE002D
:101C3E00FC01EB01EA0121009116080003102000BF
:101C4E00560D570DD8005808FB007B08031D302E8B
:101C5E00312E3A2E0030D7000030D6000030D5009D
:101C6E000030D400992E5408D8005508D9005608D3
:101C7E00DA005708DB001F30DB36DA0CD90CD80C33
:101C8E00890B432E5808DC005C08FA00D617FF308B
:101C9E00D405FF30D505FF30D6050030D705963078
:101CAE00FB02FB1F5B2E5C2E742E7B08803A973E48
:101CBE000318622E632E642E312E0130D736D60CC9
:101CCE00D50CD40C890B652E0130D8005808FB07B3
:101CDE00031D722E732E642E892E20307B02031C60
:101CEE00792E7A2E842E312E0130D435D50DD60D87
:101CFE00D70D890B7C2E0130FB027B08031D882E2D
:101D0E00892E7B2E7A0803198D2E8E2E992ED409AC
:101D1E00D509D609D709D40A0319D50A0319D60A43
:101D2E000319D70A08002000A00020080319A02ECE
:101D3E00A12EB52EF41FA42EA52EB52E7109A2002C
:101D4E007209A3007309A4007409A500A20A03195D
:101D5E00A30A0319A40A0319A50ABD2E7408A50027
:101D6E007308A4007208A3007108A200740873041B
:101D7E0072047104031DC42EC52ECE2E0030F40045
:101D8E000030F3000030F2000030F100462F9630A4
:101D9E00F5007508A100DE2E0130F5007508A107CB
:101DAE000130A536A40CA30CA20C890BD82EFE3044
:101DBE002505031DE32EE42ED32EF82E0130F5005B
:101DCE007508A1070130A2070030A33D0030A43DE5
:101DDE000030A53D0130A536A40CA30CA20C890B36
:101DEE00F22EFF302505031DFD2EFE2EE52E082FAB
:101DFE000130A1020130A235A30DA40DA50D890B52
:101E0E00022FA41B0B2F0C2F122F023021020318AE
:101E1E00112F122FFF2E2118152F162F1E2FFF30C8
:101E2E00A205FF30A3057F30A405FF30A5050310E2
:101E3E00A10C2108F500F601F701F8011830F5356F
:101E4E00F60DF70DF80D890B262F7508A2047608EE
:101E5E00A3047708A4047808A50420080319382FD2
:101E6E00392F3E2FF41F3C2F3D2F3E2FA51725084F
:101E7E00F4002408F3002308F2002208F100080001
:101E8E0020005D0861022100BE0020005E08623B5A
:101E9E002100BF0020005F0861022100C000200069
:101EAE006008623B2100C10020006308650221002A
:101EBE00C20020006408663B2100C3004008F10008
:101ECE004108F200890D893B8909F300F4000130C5
:101EDE008E319A268F3174082000A9007308A8004D
:101EEE007208A7007108A60021003E08F1003F0805
:101EFE00F200890D893B8909F300F40001308E311F
:101F0E009A268F3174082000AD007308AC00720859
:101F1E00AB007108AA008431E0248F31200029081B
:101F2E002100BD00200028082100BC002000270849
:101F3E002100BB00200026082100BA004208F10053
:101F4E004308F200890D893B8909F300F400013042
:101F5E008E319A268F3174082000AD007308AC00C4
:101F6E007208AB007108AA0021003D082000A900EC
:101F7E0021003C082000A80021003B082000A700FB
:101F8E0021003A082000A600803151208F31200018
:101F9E002908C7002808C6002708C5002608C4005F
:101FAE003F30C3000030C2000030C1000030C0001E
:101FBE008231A8228F3120004308D7004208D60074
:101FCE004108D5004008D4008E3125268F312000DF
:101FDE0055082100C500200054082100C400440803
:101FEE0020006502DD00210045082000663BDE0072
:101FFE000800013400340A34003464340034E83408
:10200E00033410342734253464342C3420342534EE
:08201E0064340D340A3400346F
:020000040001F9
:04000E00E439FF1EB4
:00000001FF
